{
  "_format": "hh-sol-artifact-1",
  "contractName": "MyNFT",
  "sourceName": "contracts/nft.sol",
  "abi": [
    {
      "inputs": [],
      "stateMutability": "nonpayable",
      "type": "constructor"
    },
    {
      "anonymous": false,
      "inputs": [
        {
          "indexed": true,
          "internalType": "address",
          "name": "owner",
          "type": "address"
        },
        {
          "indexed": true,
          "internalType": "address",
          "name": "approved",
          "type": "address"
        },
        {
          "indexed": true,
          "internalType": "uint256",
          "name": "tokenId",
          "type": "uint256"
        }
      ],
      "name": "Approval",
      "type": "event"
    },
    {
      "anonymous": false,
      "inputs": [
        {
          "indexed": true,
          "internalType": "address",
          "name": "owner",
          "type": "address"
        },
        {
          "indexed": true,
          "internalType": "address",
          "name": "operator",
          "type": "address"
        },
        {
          "indexed": false,
          "internalType": "bool",
          "name": "approved",
          "type": "bool"
        }
      ],
      "name": "ApprovalForAll",
      "type": "event"
    },
    {
      "anonymous": false,
      "inputs": [
        {
          "indexed": true,
          "internalType": "address",
          "name": "from",
          "type": "address"
        },
        {
          "indexed": true,
          "internalType": "address",
          "name": "to",
          "type": "address"
        },
        {
          "indexed": true,
          "internalType": "uint256",
          "name": "tokenId",
          "type": "uint256"
        }
      ],
      "name": "Transfer",
      "type": "event"
    },
    {
      "inputs": [
        {
          "internalType": "address",
          "name": "to",
          "type": "address"
        },
        {
          "internalType": "uint256",
          "name": "tokenId",
          "type": "uint256"
        }
      ],
      "name": "approve",
      "outputs": [],
      "stateMutability": "nonpayable",
      "type": "function"
    },
    {
      "inputs": [
        {
          "internalType": "address",
          "name": "owner",
          "type": "address"
        }
      ],
      "name": "balanceOf",
      "outputs": [
        {
          "internalType": "uint256",
          "name": "",
          "type": "uint256"
        }
      ],
      "stateMutability": "view",
      "type": "function"
    },
    {
      "inputs": [],
      "name": "deployed",
      "outputs": [
        {
          "internalType": "string",
          "name": "",
          "type": "string"
        }
      ],
      "stateMutability": "pure",
      "type": "function"
    },
    {
      "inputs": [
        {
          "internalType": "uint256",
          "name": "tokenId",
          "type": "uint256"
        }
      ],
      "name": "getApproved",
      "outputs": [
        {
          "internalType": "address",
          "name": "",
          "type": "address"
        }
      ],
      "stateMutability": "view",
      "type": "function"
    },
    {
      "inputs": [
        {
          "internalType": "address",
          "name": "owner",
          "type": "address"
        },
        {
          "internalType": "address",
          "name": "operator",
          "type": "address"
        }
      ],
      "name": "isApprovedForAll",
      "outputs": [
        {
          "internalType": "bool",
          "name": "",
          "type": "bool"
        }
      ],
      "stateMutability": "view",
      "type": "function"
    },
    {
      "inputs": [
        {
          "internalType": "string",
          "name": "tokenURI",
          "type": "string"
        }
      ],
      "name": "mintToken",
      "outputs": [
        {
          "internalType": "uint256",
          "name": "",
          "type": "uint256"
        }
      ],
      "stateMutability": "nonpayable",
      "type": "function"
    },
    {
      "inputs": [],
      "name": "name",
      "outputs": [
        {
          "internalType": "string",
          "name": "",
          "type": "string"
        }
      ],
      "stateMutability": "view",
      "type": "function"
    },
    {
      "inputs": [
        {
          "internalType": "uint256",
          "name": "tokenId",
          "type": "uint256"
        }
      ],
      "name": "ownerOf",
      "outputs": [
        {
          "internalType": "address",
          "name": "",
          "type": "address"
        }
      ],
      "stateMutability": "view",
      "type": "function"
    },
    {
      "inputs": [
        {
          "internalType": "address",
          "name": "from",
          "type": "address"
        },
        {
          "internalType": "address",
          "name": "to",
          "type": "address"
        },
        {
          "internalType": "uint256",
          "name": "tokenId",
          "type": "uint256"
        }
      ],
      "name": "safeTransferFrom",
      "outputs": [],
      "stateMutability": "nonpayable",
      "type": "function"
    },
    {
      "inputs": [
        {
          "internalType": "address",
          "name": "from",
          "type": "address"
        },
        {
          "internalType": "address",
          "name": "to",
          "type": "address"
        },
        {
          "internalType": "uint256",
          "name": "tokenId",
          "type": "uint256"
        },
        {
          "internalType": "bytes",
          "name": "data",
          "type": "bytes"
        }
      ],
      "name": "safeTransferFrom",
      "outputs": [],
      "stateMutability": "nonpayable",
      "type": "function"
    },
    {
      "inputs": [
        {
          "internalType": "address",
          "name": "operator",
          "type": "address"
        },
        {
          "internalType": "bool",
          "name": "approved",
          "type": "bool"
        }
      ],
      "name": "setApprovalForAll",
      "outputs": [],
      "stateMutability": "nonpayable",
      "type": "function"
    },
    {
      "inputs": [
        {
          "internalType": "bytes4",
          "name": "interfaceId",
          "type": "bytes4"
        }
      ],
      "name": "supportsInterface",
      "outputs": [
        {
          "internalType": "bool",
          "name": "",
          "type": "bool"
        }
      ],
      "stateMutability": "view",
      "type": "function"
    },
    {
      "inputs": [],
      "name": "symbol",
      "outputs": [
        {
          "internalType": "string",
          "name": "",
          "type": "string"
        }
      ],
      "stateMutability": "view",
      "type": "function"
    },
    {
      "inputs": [
        {
          "internalType": "uint256",
          "name": "tokenId",
          "type": "uint256"
        }
      ],
      "name": "tokenURI",
      "outputs": [
        {
          "internalType": "string",
          "name": "",
          "type": "string"
        }
      ],
      "stateMutability": "view",
      "type": "function"
    },
    {
      "inputs": [
        {
          "internalType": "address",
          "name": "from",
          "type": "address"
        },
        {
          "internalType": "address",
          "name": "to",
          "type": "address"
        },
        {
          "internalType": "uint256",
          "name": "tokenId",
          "type": "uint256"
        }
      ],
      "name": "transferFrom",
      "outputs": [],
      "stateMutability": "nonpayable",
      "type": "function"
    }
  ],
  "bytecode": "0x60806040523480156200001157600080fd5b506040805180820182526005815264135653919560da1b6020808301918252835180850190945260048452631513919560e21b9084015281519192916200005b916000916200007a565b508051620000719060019060208401906200007a565b5050506200015d565b828054620000889062000120565b90600052602060002090601f016020900481019282620000ac5760008555620000f7565b82601f10620000c757805160ff1916838001178555620000f7565b82800160010185558215620000f7579182015b82811115620000f7578251825591602001919060010190620000da565b506200010592915062000109565b5090565b5b808211156200010557600081556001016200010a565b600181811c908216806200013557607f821691505b602082108114156200015757634e487b7160e01b600052602260045260246000fd5b50919050565b6115bc806200016d6000396000f3fe608060405234801561001057600080fd5b50600436106100f55760003560e01c80636352211e11610097578063b88d4fde11610066578063b88d4fde146101ff578063c87b56dd14610212578063e985e9c514610225578063f905c15a1461026157600080fd5b80636352211e146101be57806370a08231146101d157806395d89b41146101e4578063a22cb465146101ec57600080fd5b8063095ea7b3116100d3578063095ea7b31461016257806323b872dd1461017757806333eba49a1461018a57806342842e0e146101ab57600080fd5b806301ffc9a7146100fa57806306fdde0314610122578063081812fc14610137575b600080fd5b61010d610108366004611258565b61028a565b60405190151581526020015b60405180910390f35b61012a6102dc565b604051610119919061138c565b61014a6101453660046112db565b61036e565b6040516001600160a01b039091168152602001610119565b61017561017036600461122e565b610395565b005b61017561018536600461113a565b6104b0565b61019d610198366004611292565b6104e1565b604051908152602001610119565b6101756101b936600461113a565b610512565b61014a6101cc3660046112db565b61052d565b61019d6101df3660046110ec565b61058d565b61012a610613565b6101756101fa3660046111f2565b610622565b61017561020d366004611176565b610631565b61012a6102203660046112db565b610669565b61010d610233366004611107565b6001600160a01b03918216600090815260056020908152604080832093909416825291909152205460ff1690565b60408051808201909152600d81526c1248185b4819195c1b1bde5959609a1b602082015261012a565b60006001600160e01b031982166380ac58cd60e01b14806102bb57506001600160e01b03198216635b5e139f60e01b145b806102d657506301ffc9a760e01b6001600160e01b03198316145b92915050565b6060600080546102eb906114ae565b80601f0160208091040260200160405190810160405280929190818152602001828054610317906114ae565b80156103645780601f1061033957610100808354040283529160200191610364565b820191906000526020600020905b81548152906001019060200180831161034757829003601f168201915b5050505050905090565b60006103798261077a565b506000908152600460205260409020546001600160a01b031690565b60006103a08261052d565b9050806001600160a01b0316836001600160a01b031614156104135760405162461bcd60e51b815260206004820152602160248201527f4552433732313a20617070726f76616c20746f2063757272656e74206f776e656044820152603960f91b60648201526084015b60405180910390fd5b336001600160a01b038216148061042f575061042f8133610233565b6104a15760405162461bcd60e51b815260206004820152603e60248201527f4552433732313a20617070726f76652063616c6c6572206973206e6f7420746f60448201527f6b656e206f776e6572206e6f7220617070726f76656420666f7220616c6c0000606482015260840161040a565b6104ab83836107dc565b505050565b6104ba338261084a565b6104d65760405162461bcd60e51b815260040161040a906113f1565b6104ab8383836108c8565b60006104f1600780546001019055565b60006104fc60075490565b90506105083382610a64565b6102d68184610ba6565b6104ab83838360405180602001604052806000815250610631565b6000818152600260205260408120546001600160a01b0316806102d65760405162461bcd60e51b8152602060048201526018602482015277115490cdcc8c4e881a5b9d985b1a59081d1bdad95b88125160421b604482015260640161040a565b60006001600160a01b0382166105f75760405162461bcd60e51b815260206004820152602960248201527f4552433732313a2061646472657373207a65726f206973206e6f7420612076616044820152683634b21037bbb732b960b91b606482015260840161040a565b506001600160a01b031660009081526003602052604090205490565b6060600180546102eb906114ae565b61062d338383610c40565b5050565b61063b338361084a565b6106575760405162461bcd60e51b815260040161040a906113f1565b61066384848484610d0f565b50505050565b60606106748261077a565b6000828152600660205260408120805461068d906114ae565b80601f01602080910402602001604051908101604052809291908181526020018280546106b9906114ae565b80156107065780601f106106db57610100808354040283529160200191610706565b820191906000526020600020905b8154815290600101906020018083116106e957829003601f168201915b50505050509050600061072460408051602081019091526000815290565b9050805160001415610737575092915050565b815115610769578082604051602001610751929190611320565b60405160208183030381529060405292505050919050565b61077284610d42565b949350505050565b6000818152600260205260409020546001600160a01b03166107d95760405162461bcd60e51b8152602060048201526018602482015277115490cdcc8c4e881a5b9d985b1a59081d1bdad95b88125160421b604482015260640161040a565b50565b600081815260046020526040902080546001600160a01b0319166001600160a01b03841690811790915581906108118261052d565b6001600160a01b03167f8c5be1e5ebec7d5bd14f71427d1e84f3dd0314c0f7b2291e5b200ac8c7c3b92560405160405180910390a45050565b6000806108568361052d565b9050806001600160a01b0316846001600160a01b0316148061089d57506001600160a01b0380821660009081526005602090815260408083209388168352929052205460ff165b806107725750836001600160a01b03166108b68461036e565b6001600160a01b031614949350505050565b826001600160a01b03166108db8261052d565b6001600160a01b03161461093f5760405162461bcd60e51b815260206004820152602560248201527f4552433732313a207472616e736665722066726f6d20696e636f72726563742060448201526437bbb732b960d91b606482015260840161040a565b6001600160a01b0382166109a15760405162461bcd60e51b8152602060048201526024808201527f4552433732313a207472616e7366657220746f20746865207a65726f206164646044820152637265737360e01b606482015260840161040a565b6109ac6000826107dc565b6001600160a01b03831660009081526003602052604081208054600192906109d590849061146b565b90915550506001600160a01b0382166000908152600360205260408120805460019290610a0390849061143f565b909155505060008181526002602052604080822080546001600160a01b0319166001600160a01b0386811691821790925591518493918716917fddf252ad1be2c89b69c2b068fc378daa952ba7f163c4a11628f55a4df523b3ef91a4505050565b6001600160a01b038216610aba5760405162461bcd60e51b815260206004820181905260248201527f4552433732313a206d696e7420746f20746865207a65726f2061646472657373604482015260640161040a565b6000818152600260205260409020546001600160a01b031615610b1f5760405162461bcd60e51b815260206004820152601c60248201527f4552433732313a20746f6b656e20616c7265616479206d696e74656400000000604482015260640161040a565b6001600160a01b0382166000908152600360205260408120805460019290610b4890849061143f565b909155505060008181526002602052604080822080546001600160a01b0319166001600160a01b03861690811790915590518392907fddf252ad1be2c89b69c2b068fc378daa952ba7f163c4a11628f55a4df523b3ef908290a45050565b6000828152600260205260409020546001600160a01b0316610c215760405162461bcd60e51b815260206004820152602e60248201527f45524337323155524953746f726167653a2055524920736574206f66206e6f6e60448201526d32bc34b9ba32b73a103a37b5b2b760911b606482015260840161040a565b600082815260066020908152604090912082516104ab92840190610fc1565b816001600160a01b0316836001600160a01b03161415610ca25760405162461bcd60e51b815260206004820152601960248201527f4552433732313a20617070726f766520746f2063616c6c657200000000000000604482015260640161040a565b6001600160a01b03838116600081815260056020908152604080832094871680845294825291829020805460ff191686151590811790915591519182527f17307eab39ab6107e8899845ad3d59bd9653f200f220920489ca2b5937696c31910160405180910390a3505050565b610d1a8484846108c8565b610d2684848484610db6565b6106635760405162461bcd60e51b815260040161040a9061139f565b6060610d4d8261077a565b6000610d6460408051602081019091526000815290565b90506000815111610d845760405180602001604052806000815250610daf565b80610d8e84610ec3565b604051602001610d9f929190611320565b6040516020818303038152906040525b9392505050565b60006001600160a01b0384163b15610eb857604051630a85bd0160e11b81526001600160a01b0385169063150b7a0290610dfa90339089908890889060040161134f565b602060405180830381600087803b158015610e1457600080fd5b505af1925050508015610e44575060408051601f3d908101601f19168201909252610e4191810190611275565b60015b610e9e573d808015610e72576040519150601f19603f3d011682016040523d82523d6000602084013e610e77565b606091505b508051610e965760405162461bcd60e51b815260040161040a9061139f565b805181602001fd5b6001600160e01b031916630a85bd0160e11b149050610772565b506001949350505050565b606081610ee75750506040805180820190915260018152600360fc1b602082015290565b8160005b8115610f115780610efb816114e9565b9150610f0a9050600a83611457565b9150610eeb565b60008167ffffffffffffffff811115610f2c57610f2c61155a565b6040519080825280601f01601f191660200182016040528015610f56576020820181803683370190505b5090505b841561077257610f6b60018361146b565b9150610f78600a86611504565b610f8390603061143f565b60f81b818381518110610f9857610f98611544565b60200101906001600160f81b031916908160001a905350610fba600a86611457565b9450610f5a565b828054610fcd906114ae565b90600052602060002090601f016020900481019282610fef5760008555611035565b82601f1061100857805160ff1916838001178555611035565b82800160010185558215611035579182015b8281111561103557825182559160200191906001019061101a565b50611041929150611045565b5090565b5b808211156110415760008155600101611046565b600067ffffffffffffffff808411156110755761107561155a565b604051601f8501601f19908116603f0116810190828211818310171561109d5761109d61155a565b816040528093508581528686860111156110b657600080fd5b858560208301376000602087830101525050509392505050565b80356001600160a01b03811681146110e757600080fd5b919050565b6000602082840312156110fe57600080fd5b610daf826110d0565b6000806040838503121561111a57600080fd5b611123836110d0565b9150611131602084016110d0565b90509250929050565b60008060006060848603121561114f57600080fd5b611158846110d0565b9250611166602085016110d0565b9150604084013590509250925092565b6000806000806080858703121561118c57600080fd5b611195856110d0565b93506111a3602086016110d0565b925060408501359150606085013567ffffffffffffffff8111156111c657600080fd5b8501601f810187136111d757600080fd5b6111e68782356020840161105a565b91505092959194509250565b6000806040838503121561120557600080fd5b61120e836110d0565b91506020830135801515811461122357600080fd5b809150509250929050565b6000806040838503121561124157600080fd5b61124a836110d0565b946020939093013593505050565b60006020828403121561126a57600080fd5b8135610daf81611570565b60006020828403121561128757600080fd5b8151610daf81611570565b6000602082840312156112a457600080fd5b813567ffffffffffffffff8111156112bb57600080fd5b8201601f810184136112cc57600080fd5b6107728482356020840161105a565b6000602082840312156112ed57600080fd5b5035919050565b6000815180845261130c816020860160208601611482565b601f01601f19169290920160200192915050565b60008351611332818460208801611482565b835190830190611346818360208801611482565b01949350505050565b6001600160a01b0385811682528416602082015260408101839052608060608201819052600090611382908301846112f4565b9695505050505050565b602081526000610daf60208301846112f4565b60208082526032908201527f4552433732313a207472616e7366657220746f206e6f6e20455243373231526560408201527131b2b4bb32b91034b6b83632b6b2b73a32b960711b606082015260800190565b6020808252602e908201527f4552433732313a2063616c6c6572206973206e6f7420746f6b656e206f776e6560408201526d1c881b9bdc88185c1c1c9bdd995960921b606082015260800190565b6000821982111561145257611452611518565b500190565b6000826114665761146661152e565b500490565b60008282101561147d5761147d611518565b500390565b60005b8381101561149d578181015183820152602001611485565b838111156106635750506000910152565b600181811c908216806114c257607f821691505b602082108114156114e357634e487b7160e01b600052602260045260246000fd5b50919050565b60006000198214156114fd576114fd611518565b5060010190565b6000826115135761151361152e565b500690565b634e487b7160e01b600052601160045260246000fd5b634e487b7160e01b600052601260045260246000fd5b634e487b7160e01b600052603260045260246000fd5b634e487b7160e01b600052604160045260246000fd5b6001600160e01b0319811681146107d957600080fdfea264697066735822122025a9fe595b5be62277391206a06273691ddf879f2fe3b73c70a5fd2046a9b25f64736f6c63430008070033",
  "linkReferences": {},
  "deployedLinkReferences": {}
}